{
  "contractName": "Voting",
  "abi": [
    {
      "inputs": [],
      "stateMutability": "nonpayable",
      "type": "constructor"
    },
    {
      "inputs": [
        {
          "internalType": "address",
          "name": "owner",
          "type": "address"
        }
      ],
      "name": "OwnableInvalidOwner",
      "type": "error"
    },
    {
      "inputs": [
        {
          "internalType": "address",
          "name": "account",
          "type": "address"
        }
      ],
      "name": "OwnableUnauthorizedAccount",
      "type": "error"
    },
    {
      "anonymous": false,
      "inputs": [
        {
          "indexed": true,
          "internalType": "address",
          "name": "previousOwner",
          "type": "address"
        },
        {
          "indexed": true,
          "internalType": "address",
          "name": "newOwner",
          "type": "address"
        }
      ],
      "name": "OwnershipTransferred",
      "type": "event"
    },
    {
      "inputs": [],
      "name": "owner",
      "outputs": [
        {
          "internalType": "address",
          "name": "",
          "type": "address"
        }
      ],
      "stateMutability": "view",
      "type": "function"
    },
    {
      "inputs": [],
      "name": "renounceOwnership",
      "outputs": [],
      "stateMutability": "nonpayable",
      "type": "function"
    },
    {
      "inputs": [
        {
          "internalType": "address",
          "name": "newOwner",
          "type": "address"
        }
      ],
      "name": "transferOwnership",
      "outputs": [],
      "stateMutability": "nonpayable",
      "type": "function"
    },
    {
      "inputs": [
        {
          "internalType": "string",
          "name": "_name",
          "type": "string"
        }
      ],
      "name": "newCandidate",
      "outputs": [],
      "stateMutability": "nonpayable",
      "type": "function"
    },
    {
      "inputs": [
        {
          "internalType": "string",
          "name": "_name",
          "type": "string"
        }
      ],
      "name": "vote",
      "outputs": [],
      "stateMutability": "nonpayable",
      "type": "function"
    },
    {
      "inputs": [],
      "name": "getCandidates",
      "outputs": [
        {
          "components": [
            {
              "internalType": "string",
              "name": "name",
              "type": "string"
            },
            {
              "internalType": "uint256",
              "name": "votingCount",
              "type": "uint256"
            }
          ],
          "internalType": "struct Voting.Candidate[]",
          "name": "",
          "type": "tuple[]"
        }
      ],
      "stateMutability": "view",
      "type": "function"
    },
    {
      "inputs": [],
      "name": "removePersonVote",
      "outputs": [],
      "stateMutability": "nonpayable",
      "type": "function"
    }
  ],
  "bytecode": "0x608060405234801561000f575f80fd5b50335f73ffffffffffffffffffffffffffffffffffffffff168173ffffffffffffffffffffffffffffffffffffffff1603610081575f6040517f1e4fbdf70000000000000000000000000000000000000000000000000000000081526004016100789190610196565b60405180910390fd5b6100908161009660201b60201c565b506101af565b5f805f9054906101000a900473ffffffffffffffffffffffffffffffffffffffff169050815f806101000a81548173ffffffffffffffffffffffffffffffffffffffff021916908373ffffffffffffffffffffffffffffffffffffffff1602179055508173ffffffffffffffffffffffffffffffffffffffff168173ffffffffffffffffffffffffffffffffffffffff167f8be0079c531659141344cd1fd0a4f28419497f9722a3daafe3b4186f6b6457e060405160405180910390a35050565b5f73ffffffffffffffffffffffffffffffffffffffff82169050919050565b5f61018082610157565b9050919050565b61019081610176565b82525050565b5f6020820190506101a95f830184610187565b92915050565b610f87806101bc5f395ff3fe608060405234801561000f575f80fd5b506004361061007b575f3560e01c80638da5cb5b116100595780638da5cb5b146100b1578063c970e891146100cf578063f2fde38b146100eb578063fc36e15b146101075761007b565b806306a49fce1461007f578063715018a61461009d5780637e8e01d1146100a7575b5f80fd5b610087610123565b6040516100949190610838565b60405180910390f35b6100a5610218565b005b6100af61022b565b005b6100b9610281565b6040516100c69190610897565b60405180910390f35b6100e960048036038101906100e491906109ed565b6102a8565b005b61010560048036038101906101009190610a5e565b610315565b005b610121600480360381019061011c91906109ed565b610399565b005b60606001805480602002602001604051908101604052809291908181526020015f905b8282101561020f578382905f5260205f2090600202016040518060400160405290815f8201805461017690610ab6565b80601f01602080910402602001604051908101604052809291908181526020018280546101a290610ab6565b80156101ed5780601f106101c4576101008083540402835291602001916101ed565b820191905f5260205f20905b8154815290600101906020018083116101d057829003601f168201915b5050505050815260200160018201548152505081526020019060010190610146565b50505050905090565b610220610552565b6102295f6105d9565b565b5f60025f3373ffffffffffffffffffffffffffffffffffffffff1673ffffffffffffffffffffffffffffffffffffffff1681526020019081526020015f205f6101000a81548160ff021916908315150217905550565b5f805f9054906101000a900473ffffffffffffffffffffffffffffffffffffffff16905090565b6102b0610552565b5f60405180604001604052808381526020015f8152509050600181908060018154018082558091505060019003905f5260205f2090600202015f909190919091505f820151815f0190816103049190610c83565b506020820151816001015550505050565b61031d610552565b5f73ffffffffffffffffffffffffffffffffffffffff168173ffffffffffffffffffffffffffffffffffffffff160361038d575f6040517f1e4fbdf70000000000000000000000000000000000000000000000000000000081526004016103849190610897565b60405180910390fd5b610396816105d9565b50565b60025f3373ffffffffffffffffffffffffffffffffffffffff1673ffffffffffffffffffffffffffffffffffffffff1681526020019081526020015f205f9054906101000a900460ff16158061043c57505f151560025f3373ffffffffffffffffffffffffffffffffffffffff1673ffffffffffffffffffffffffffffffffffffffff1681526020019081526020015f205f9054906101000a900460ff16151514155b61047b576040517f08c379a000000000000000000000000000000000000000000000000000000000815260040161047290610dac565b60405180910390fd5b5f5b60018054905081101561054e578160405160200161049b9190610e04565b60405160208183030381529060405280519060200120600182815481106104c5576104c4610e1a565b5b905f5260205f2090600202015f016040516020016104e39190610ec7565b604051602081830303815290604052805190602001200361053b576001818154811061051257610511610e1a565b5b905f5260205f2090600202016001015f81548092919061053190610f0a565b919050555061054e565b808061054690610f0a565b91505061047d565b5050565b61055a61069a565b73ffffffffffffffffffffffffffffffffffffffff16610578610281565b73ffffffffffffffffffffffffffffffffffffffff16146105d75761059b61069a565b6040517f118cdaa70000000000000000000000000000000000000000000000000000000081526004016105ce9190610897565b60405180910390fd5b565b5f805f9054906101000a900473ffffffffffffffffffffffffffffffffffffffff169050815f806101000a81548173ffffffffffffffffffffffffffffffffffffffff021916908373ffffffffffffffffffffffffffffffffffffffff1602179055508173ffffffffffffffffffffffffffffffffffffffff168173ffffffffffffffffffffffffffffffffffffffff167f8be0079c531659141344cd1fd0a4f28419497f9722a3daafe3b4186f6b6457e060405160405180910390a35050565b5f33905090565b5f81519050919050565b5f82825260208201905092915050565b5f819050602082019050919050565b5f81519050919050565b5f82825260208201905092915050565b5f5b838110156107015780820151818401526020810190506106e6565b5f8484015250505050565b5f601f19601f8301169050919050565b5f610726826106ca565b61073081856106d4565b93506107408185602086016106e4565b6107498161070c565b840191505092915050565b5f819050919050565b61076681610754565b82525050565b5f604083015f8301518482035f860152610786828261071c565b915050602083015161079b602086018261075d565b508091505092915050565b5f6107b1838361076c565b905092915050565b5f602082019050919050565b5f6107cf826106a1565b6107d981856106ab565b9350836020820285016107eb856106bb565b805f5b85811015610826578484038952815161080785826107a6565b9450610812836107b9565b925060208a019950506001810190506107ee565b50829750879550505050505092915050565b5f6020820190508181035f83015261085081846107c5565b905092915050565b5f73ffffffffffffffffffffffffffffffffffffffff82169050919050565b5f61088182610858565b9050919050565b61089181610877565b82525050565b5f6020820190506108aa5f830184610888565b92915050565b5f604051905090565b5f80fd5b5f80fd5b5f80fd5b5f80fd5b7f4e487b71000000000000000000000000000000000000000000000000000000005f52604160045260245ffd5b6108ff8261070c565b810181811067ffffffffffffffff8211171561091e5761091d6108c9565b5b80604052505050565b5f6109306108b0565b905061093c82826108f6565b919050565b5f67ffffffffffffffff82111561095b5761095a6108c9565b5b6109648261070c565b9050602081019050919050565b828183375f83830152505050565b5f61099161098c84610941565b610927565b9050828152602081018484840111156109ad576109ac6108c5565b5b6109b8848285610971565b509392505050565b5f82601f8301126109d4576109d36108c1565b5b81356109e484826020860161097f565b91505092915050565b5f60208284031215610a0257610a016108b9565b5b5f82013567ffffffffffffffff811115610a1f57610a1e6108bd565b5b610a2b848285016109c0565b91505092915050565b610a3d81610877565b8114610a47575f80fd5b50565b5f81359050610a5881610a34565b92915050565b5f60208284031215610a7357610a726108b9565b5b5f610a8084828501610a4a565b91505092915050565b7f4e487b71000000000000000000000000000000000000000000000000000000005f52602260045260245ffd5b5f6002820490506001821680610acd57607f821691505b602082108103610ae057610adf610a89565b5b50919050565b5f819050815f5260205f209050919050565b5f6020601f8301049050919050565b5f82821b905092915050565b5f60088302610b427fffffffffffffffffffffffffffffffffffffffffffffffffffffffffffffffff82610b07565b610b4c8683610b07565b95508019841693508086168417925050509392505050565b5f819050919050565b5f610b87610b82610b7d84610754565b610b64565b610754565b9050919050565b5f819050919050565b610ba083610b6d565b610bb4610bac82610b8e565b848454610b13565b825550505050565b5f90565b610bc8610bbc565b610bd3818484610b97565b505050565b5b81811015610bf657610beb5f82610bc0565b600181019050610bd9565b5050565b601f821115610c3b57610c0c81610ae6565b610c1584610af8565b81016020851015610c24578190505b610c38610c3085610af8565b830182610bd8565b50505b505050565b5f82821c905092915050565b5f610c5b5f1984600802610c40565b1980831691505092915050565b5f610c738383610c4c565b9150826002028217905092915050565b610c8c826106ca565b67ffffffffffffffff811115610ca557610ca46108c9565b5b610caf8254610ab6565b610cba828285610bfa565b5f60209050601f831160018114610ceb575f8415610cd9578287015190505b610ce38582610c68565b865550610d4a565b601f198416610cf986610ae6565b5f5b82811015610d2057848901518255600182019150602085019450602081019050610cfb565b86831015610d3d5784890151610d39601f891682610c4c565b8355505b6001600288020188555050505b505050505050565b5f82825260208201905092915050565b7f766f74656420616c7265616479210000000000000000000000000000000000005f82015250565b5f610d96600e83610d52565b9150610da182610d62565b602082019050919050565b5f6020820190508181035f830152610dc381610d8a565b9050919050565b5f81905092915050565b5f610dde826106ca565b610de88185610dca565b9350610df88185602086016106e4565b80840191505092915050565b5f610e0f8284610dd4565b915081905092915050565b7f4e487b71000000000000000000000000000000000000000000000000000000005f52603260045260245ffd5b5f8154610e5381610ab6565b610e5d8186610dca565b9450600182165f8114610e775760018114610e8c57610ebe565b60ff1983168652811515820286019350610ebe565b610e9585610ae6565b5f5b83811015610eb657815481890152600182019150602081019050610e97565b838801955050505b50505092915050565b5f610ed28284610e47565b915081905092915050565b7f4e487b71000000000000000000000000000000000000000000000000000000005f52601160045260245ffd5b5f610f1482610754565b91507fffffffffffffffffffffffffffffffffffffffffffffffffffffffffffffffff8203610f4657610f45610edd565b5b60018201905091905056fea26469706673582212207aedcdd488abde0f849f0561b34c03bcd4038cedb8856a48bff980339f5001fc64736f6c63430008140033",
  "immutableReferences": {},
  "source": "//SPDX-License-Identifier: UNLICENSED\r\n\r\npragma solidity ^0.8.20;\r\n\r\nimport \"@openzeppelin/contracts/access/Ownable.sol\";\r\n\r\ncontract Voting is Ownable {\r\n\r\n    struct Candidate {\r\n        string name;\r\n        uint256 votingCount;\r\n    }\r\n    Candidate[] private candidates;\r\n\r\n    // this is to check whether the voter has already voted or not\r\n    mapping(address => bool) voted;\r\n\r\n    constructor() Ownable(msg.sender) {}\r\n\r\n    function newCandidate(string memory _name) public onlyOwner {\r\n\r\n        // check for existence of candidate\r\n        Candidate memory candidate = Candidate({\r\n            name: _name,\r\n            votingCount: 0\r\n        });\r\n\r\n        candidates.push(candidate);\r\n    }\r\n\r\n    function vote(string memory _name) public {\r\n        require(!voted[msg.sender] || voted[msg.sender] != false, \"voted already!\");\r\n\r\n        for(uint i=0; i < candidates.length; i++) {\r\n            if(keccak256(abi.encodePacked(candidates[i].name)) == keccak256(abi.encodePacked(_name))) {\r\n                candidates[i].votingCount++;\r\n                break;\r\n            }\r\n        }\r\n    }\r\n\r\n    function getCandidates() public view returns(Candidate[] memory) {\r\n        return candidates;\r\n    }\r\n\r\n    // this is for testing purpose only not for production, comment it out while deploying\r\n    // as this lets user mark their vote to be false which in is not good\r\n    function removePersonVote() public {\r\n        voted[msg.sender] = false;\r\n    }\r\n\r\n}",
  "sourcePath": "D:\\DAPPs\\Voting DAPP\\contracts\\Voting.sol",
  "compiler": {
    "name": "solc",
    "version": "0.8.20+commit.a1b79de6.Emscripten.clang"
  },
  "schemaVersion": "3.4.16",
  "updatedAt": "2025-04-21T23:17:18.738Z",
  "devdoc": {
    "errors": {
      "OwnableInvalidOwner(address)": [
        {
          "details": "The owner is not a valid owner account. (eg. `address(0)`)"
        }
      ],
      "OwnableUnauthorizedAccount(address)": [
        {
          "details": "The caller account is not authorized to perform an operation."
        }
      ]
    },
    "kind": "dev",
    "methods": {
      "owner()": {
        "details": "Returns the address of the current owner."
      },
      "renounceOwnership()": {
        "details": "Leaves the contract without owner. It will not be possible to call `onlyOwner` functions. Can only be called by the current owner. NOTE: Renouncing ownership will leave the contract without an owner, thereby disabling any functionality that is only available to the owner."
      },
      "transferOwnership(address)": {
        "details": "Transfers ownership of the contract to a new account (`newOwner`). Can only be called by the current owner."
      }
    },
    "version": 1
  },
  "userdoc": {
    "kind": "user",
    "methods": {},
    "version": 1
  }
}